S018000046726571656E63795F436F756E7465722E7372656390
S11300000C942A000C943F000C943F000C943F0085
S11300100C943F000C943F000C943F000C943F0060
S11300200C943F000C943F000C943F000C943F0050
S11300300C943F000C943F000C943F000C943F0040
S11300400C943F000C943F000C943F000C943F0030
S11300500C943F0011241FBECFE5D8E0DEBFCDBF16
S113006010E0A0E6B0E0EEE2FEE002C005900D92E2
S1130070A836B107D9F70E94AC010C9415070C946B
S11300800000672B49F58A31910521F485B38F7BF4
S113009085BB08958B31910521F485B38F7785BB9A
S11300A008958232910521F482B38F7E82BB089534
S11300B08332910521F482B38F7D82BB089584320B
S11300C0910521F482B38F7B82BB0895859761F5F6
S11300D082B38F7782BB08958A31910521F485B369
S11300E0806485BB08958B31910521F485B38068C4
S11300F085BB08958232910521F482B3806182BB6D
S113010008958332910521F482B3806282BB0895FD
S11301108432910521F482B3806482BB089585976B
S113012019F482B3806882BB0895CF93C82F80FFEF
S113013007C061E070E082E290E00E94410006C0E6
S113014060E070E082E290E00E944100C1FF07C0DD
S113015061E070E083E290E00E94410006C060E04C
S113016070E083E290E00E944100C2FF07C061E0BA
S113017070E084E290E00E94410006C060E070E01C
S113018084E290E00E944100C3FF07C061E070E098
S113019085E290E00E94410006C060E070E085E2E4
S11301A090E00E944100CF910895CF93C82F60E062
S11301B070E08AE190E00E9441008C2F0E9495003B
S11301C061E070E08BE190E00E9441008FE99FE0E4
S11301D00197F1F700C0000060E070E08BE190E06F
S11301E00E9441008FE99FE00197F1F700C00000F1
S11301F0CF910895CF93813061F480E8860FC62FA4
S1130200CF7082958F700E94D5008C2F0E94D500EC
S11302100DC0823059F480EC860FC62FCF708295C2
S11302208F700E94D5008C2F0E94D500CF91089525
S113023080E00E9495002FEF89EF90E021508040EC
S11302409040E1F700C0000083E00E94D5008FE1F8
S11302509EE40197F1F700C0000083E00E94D500FE
S11302608FED9BEA0197F1F700C0000083E00E9444
S1130270D50082E00E94D50082E00E94D50088E08B
S11302800E94D50080E00E94D5008CE00E94D50039
S113029080E00E94D50086E00E94D5000895CF93A7
S11302A0DF93D82FDF70C82FC07F61E070E08AE150
S11302B090E00E9441008C2F82958F700E949500DF
S11302C061E070E08BE190E00E9441008FE99FE0E3
S11302D00197F1F700C0000060E070E08BE190E06E
S11302E00E9441008FE99FE00197F1F700C00000F0
S11302F08D2F0E94950061E070E08BE190E00E94F8
S113030041008FE99FE00197F1F700C0000060E031
S113031070E08BE190E00E9441008FE99FE001973B
S1130320F1F700C00000DF91CF9108950F931F9360
S1130330CF93DF938C01C0E0D0E003C00E944F0153
S11303402196F801EC0FFD1F80818111F7CFDF9119
S1130350CF911F910F910895CF93DF93CDB7DEB75F
S113036062970FB6F894DEBF0FBECDBF1ABA17BAA4
S11303708FEF84BB81BB8BBB88BB0E94180185B304
S1130380846085BB85B3826085BB85B3816085BB92
S113039085B3877F85BB85B3886085BB8FE99FE084
S11303A00197F1F700C0000085B3806185BB85B378
S11303B08F7D85BB9FEFE1EEF4E09150E040F0408B
S11303C0E1F700C0000085B3806285BB85B38F7EF2
S11303D085BB85B38B7F85BB69B3C6B2862F90E09E
S11303E0A0E0B0E0D12CE12CF12C25B3246025BB96
S11303F0EFE9FFE03197F1F700C0000025B32D7F4E
S113040025BB39B326B3BA2FA92F982F8827830F7A
S1130410911DA11DB11DFE2CED2CDC2CCC24C20E93
S1130420D11CE11CF11C25B3226025BBEFE9FFE0E0
S11304303197F1F700C0000025B32E7F25BB39B3F7
S113044026B3BA2FA92F982F8827830F911DA11D9A
S1130450B11DFE2CED2CDC2CCC24C20ED11CE11CD5
S1130460F11C25B3216025BBEFE9FFE03197F1F7DB
S113047000C0000025B32E7F25BB39B326B3BA2FA5
S1130480A92F982F8827BC01CD01630F711D811DF1
S1130490911DFE2CED2CDC2CCC24C20ED11CE11CB5
S11304A0F11C25B3216025BB25B3277F25BB0E9402
S11304B0300320E030E04AEF53E40E94BE034B01D6
S11304C05C01C701B6010E9430039B01AC01C50168
S11304D0B4010E9488020E94FA027F936F9385E61A
S11304E090E09F938F938E010F5F1F4F1F930F9385
S11304F00E942B0461E081E00E94FA00C8010E947E
S113050096010F900F900F900F900F900F9043CF84
S11305100E949C020C9484030E947D0358F00E9464
S1130520760340F029F45F3F29F00C946D035111D8
S11305300C94B8030C9473030E94950368F39923F5
S1130540B1F3552391F3951B550BBB27AA276217CB
S11305507307840738F09F5F5F4F220F331F441FD8
S1130560AA1FA9F335D00E2E3AF0E0E832D091500C
S11305705040E695001CCAF72BD0FE2F29D0660FF9
S1130580771F881FBB1F261737074807AB07B0E83C
S113059009F0BB0B802DBF01FF2793585F4F3AF042
S11305A09E3F510578F00C946D030C94B8035F3FA3
S11305B0E4F3983ED4F3869577956795B795F795C8
S11305C09F5FC9F7880F911D9695879597F90895B0
S11305D0E1E0660F771F881FBB1F6217730784074C
S11305E0BA0720F0621B730B840BBA0BEE1F88F75B
S11305F0E09508950E9401036894B1110C94B80326
S113060008950E949D0388F09F5798F0B92F992769
S1130610B751B0F0E1F0660F771F881F991F1AF0E9
S1130620BA95C9F714C0B13091F00E94B703B1E094
S113063008950C94B703672F782F8827B85F39F093
S1130640B93FCCF3869577956795B395D9F73EF482
S113065090958095709561957F4F8F4F9F4F08952A
S1130660E89409C097FB3EF4909580957095619548
S11306707F4F8F4F9F4F9923A9F0F92F96E9BB27FE
S11306809395F695879577956795B795F111F8CF7A
S1130690FAF4BB0F11F460FF1BC06F5F7F4F8F4FE5
S11306A09F4F16C0882311F096E911C0772321F0DB
S11306B09EE8872F762F05C0662371F096E8862F73
S11306C070E060E02AF09A95660F771F881FDAF7CA
S11306D0880F9695879597F9089597F99F6780E80D
S11306E070E060E008959FEF80EC089500240A9480
S11306F01616170618060906089500240A941216F9
S11307001306140605060895092E0394000C11F42B
S1130710882352F0BB0F40F4BF2B11F460FF04C0D8
S11307206F5F7F4F8F4F9F4F089557FD9058440F31
S1130730551F59F05F3F71F04795880F97FB991F3C
S113074061F09F3F79F087950895121613061406F9
S1130750551FF2CF4695F1DF08C016161706180686
S1130760991FF1CF86957105610508940895E89461
S1130770BB2766277727CB0197F908950E94D103F9
S11307800C9484030E94760338F00E947D0320F0C9
S1130790952311F00C946D030C94730311240C94A1
S11307A0B8030E94950370F3959FC1F3950F50E031
S11307B0551F629FF001729FBB27F00DB11D639F0F
S11307C0AA27F00DB11DAA1F649F6627B00DA11DB5
S11307D0661F829F2227B00DA11D621F739FB00D5B
S11307E0A11D621F839FA00D611D221F749F3327CB
S11307F0A00D611D231F849F600D211D822F762F64
S11308006A2F11249F5750409AF0F1F088234AF040
S1130810EE0FFF1FBB1F661F771F881F91505040AC
S1130820A9F79E3F510580F00C946D030C94B80316
S11308305F3FE4F3983ED4F3869577956795B79533
S1130840F795E7959F5FC1F7FE2B880F911D96954D
S1130850879597F90895AEE0B0E0E1E3F4E00C94F5
S1130860EC060D891E8986E08C831A8309838FEF39
S11308709FE79E838D83AE01475E5F4F6F89788DBE
S1130880CE0101960E944D04EF81F885E00FF11F1F
S113089010822E96E4E00C940807ABE0B0E0E3E5A8
S11308A0F4E00C94DE066C017B018A01FC011782E2
S11308B01682838181FFCCC1CE0101963C01F601F1
S11308C09381F70193FD859193FF81917F018823A3
S11308D009F4BAC1853239F493FD859193FF81916E
S11308E07F01853229F4B60190E00E944406E7CFE7
S11308F0912C212C312CFFE1F315D8F08B3279F0B7
S113090038F4803279F08332A1F4232D20611DC0A4
S11309108D3261F0803369F4232D216016C0832D5C
S11309208260382EE32DE4603E2E2AC0F32DF86059
S11309301DC037FC2DC020ED280F2A3040F08E3228
S1130940B9F436FC81C1232D2064322E19C036FE41
S113095006C08AE0989E200D1124922E11C0EAE070
S11309602E9E200D1124222EF32DF0623F2E08C05E
S11309708C3621F4832D8068382E02C0883641F4E9
S1130980F70193FD859193FF81917F018111B3CF8D
S1130990982F9F7D9554933028F40C5F1F4F9FE34D
S11309A099830DC0833631F0833771F0833509F0B4
S11309B059C021C0F801808189830E5F1F4F8824AC
S11309C08394912C530113C02801F2E04F0E511C63
S11309D0F801A080B18036FE03C0692D70E002C02A
S11309E06FEF7FEFC5010E9439064C018201F32DA0
S11309F0FF773F2E16C0280122E0420E511CF80159
S1130A00A080B18036FE03C0692D70E002C06FEF94
S1130A107FEFC5010E942E064C01F32DF0683F2E96
S1130A20820133FC1BC0822D90E088169906B0F435
S1130A30B60180E290E00E9444062A94F4CFF501C6
S1130A4037FC859137FE81915F01B60190E00E94E9
S1130A50440621102A9421E0821A910881149104F9
S1130A6071F7E8C0843611F0893641F5F80137FE94
S1130A7007C060817181828193810C5F1F4F08C020
S1130A8060817181072E000C880B990B0E5F1F4F3C
S1130A90F32DFF763F2E97FF09C0909580957095B2
S1130AA061957F4F8F4F9F4FF0683F2E2AE030E0D3
S1130AB0A3010E948006882E861845C0853731F42C
S1130AC0232D2F7EB22E2AE030E025C0932D997F6E
S1130AD0B92E8F36C1F018F4883579F0B5C0803757
S1130AE019F0883721F0B0C0E92FE061BE2EB4FEC2
S1130AF00DC0FB2DF460BF2E09C034FE0AC0292F9F
S1130B002660B22E06C028E030E005C020E130E0C7
S1130B1002C020E132E0F801B7FE07C060817181B4
S1130B20828193810C5F1F4F06C06081718180E0D8
S1130B3090E00E5F1F4FA3010E948006882E861846
S1130B40FB2DFF773F2E36FE0DC0232D2E7FA22EC8
S1130B50891458F434FE0BC032FC09C0832D8E7EF8
S1130B60A82E05C0B82CA32C03C0B82C01C0B92CE6
S1130B70A4FE0FC0FE01E80DF11D8081803321F435
S1130B809A2D997EA92E09C0A2FE06C0B394B394EF
S1130B9004C08A2D867809F0B394A3FC11C0A0FE8A
S1130BA006C0B21488F4280C922C9B180EC0B21400
S1130BB060F4B60180E290E00E944406B394F7CF5B
S1130BC0B21418F42B1802C0982C212CA4FE10C0C7
S1130BD0B60180E390E00E944406A2FE17C0A1FC87
S1130BE003C088E790E002C088E590E0B6010CC03D
S1130BF08A2D867859F0A1FE02C08BE201C080E202
S1130C00A7FC8DE2B60190E00E944406891438F4F2
S1130C10B60180E390E00E9444069A94F7CF8A9448
S1130C20F301E80DF11D8081B60190E00E944406B5
S1130C308110F5CF222009F442CEB60180E290E083
S1130C400E9444062A94F6CFF6018681978102C059
S1130C508FEF9FEF2B96E2E10C94FA06FC010590CE
S1130C60615070400110D8F7809590958E0F9F1FAA
S1130C700895FC016150704001900110D8F78095EF
S1130C8090958E0F9F1F08950F931F93CF93DF931B
S1130C90FB01238121FD03C08FEF9FEF2CC022FFB6
S1130CA016C046815781248135814217530744F485
S1130CB0A081B1819D012F5F3F4F318320838C93AD
S1130CC0268137812F5F3F4F3783268314C08B01E2
S1130CD0EC01FB010084F185E02D0995892BE1F6F7
S1130CE0D80116968D919C911797019617969C930F
S1130CF08E931697CE01DF91CF911F910F91089596
S1130D00FA01AA27283051F1203181F1E8946F9338
S1130D106E7F6E5F7F4F8F4F9F4FAF4FB1E03ED0DE
S1130D20B4E03CD0670F781F891F9A1FA11D680F7C
S1130D30791F8A1F911DA11D6A0F711D811D911DAF
S1130D40A11D20D009F468943F912AE0269F112424
S1130D503019305D3193DEF6CF010895462F477088
S1130D60405D4193B3E00FD0C9F7F6CF462F4F70E3
S1130D70405D4A3318F0495D31FD4052419302D041
S1130D80A9F7EACFB4E0A6959795879577956795E7
S1130D90BA95C9F700976105710508959B01AC01E7
S1130DA00A2E06945795479537952795BA95C9F70E
S1130DB0620F731F841F951FA01D08952F923F92E9
S1130DC04F925F926F927F928F929F92AF92BF9257
S1130DD0CF92DF92EF92FF920F931F93CF93DF9303
S1130DE0CDB7DEB7CA1BDB0B0FB6F894DEBF0FBE60
S1130DF0CDBF09942A88398848885F846E847D84AD
S1130E008C849B84AA84B984C884DF80EE80FD80AE
S1130E100C811B81AA81B981CE0FD11D0FB6F89424
S1110E20DEBF0FBECDBFED010895F894FFCFE5
S10B0E2E252E2A66002564004C
S9030000FC
